{
  "contractName": "MedicineSupplyChain",
  "abi": [
    {
      "inputs": [
        {
          "internalType": "address",
          "name": "_token1",
          "type": "address"
        }
      ],
      "stateMutability": "nonpayable",
      "type": "constructor"
    },
    {
      "anonymous": false,
      "inputs": [
        {
          "indexed": false,
          "internalType": "uint256",
          "name": "id",
          "type": "uint256"
        },
        {
          "indexed": false,
          "internalType": "uint256",
          "name": "step",
          "type": "uint256"
        }
      ],
      "name": "SupplyChainStep",
      "type": "event"
    },
    {
      "inputs": [
        {
          "internalType": "uint256",
          "name": "",
          "type": "uint256"
        }
      ],
      "name": "items",
      "outputs": [
        {
          "internalType": "enum MedicineSupplyChain.SupplyChainSteps",
          "name": "step",
          "type": "uint8"
        },
        {
          "internalType": "string",
          "name": "customername",
          "type": "string"
        },
        {
          "internalType": "uint256",
          "name": "id",
          "type": "uint256"
        }
      ],
      "stateMutability": "view",
      "type": "function",
      "constant": true
    },
    {
      "inputs": [],
      "name": "owner1",
      "outputs": [
        {
          "internalType": "address",
          "name": "",
          "type": "address"
        }
      ],
      "stateMutability": "view",
      "type": "function",
      "constant": true
    },
    {
      "inputs": [],
      "name": "token1",
      "outputs": [
        {
          "internalType": "contract IERC20",
          "name": "",
          "type": "address"
        }
      ],
      "stateMutability": "view",
      "type": "function",
      "constant": true
    },
    {
      "inputs": [
        {
          "internalType": "address",
          "name": "_toadd",
          "type": "address"
        },
        {
          "internalType": "uint256",
          "name": "amount",
          "type": "uint256"
        }
      ],
      "name": "transferTokenAmount",
      "outputs": [],
      "stateMutability": "nonpayable",
      "type": "function"
    },
    {
      "inputs": [],
      "name": "getTokenBalance",
      "outputs": [
        {
          "internalType": "uint256",
          "name": "",
          "type": "uint256"
        }
      ],
      "stateMutability": "view",
      "type": "function",
      "constant": true
    },
    {
      "inputs": [
        {
          "internalType": "string",
          "name": "customername",
          "type": "string"
        },
        {
          "internalType": "uint256",
          "name": "id",
          "type": "uint256"
        }
      ],
      "name": "createItem",
      "outputs": [],
      "stateMutability": "nonpayable",
      "type": "function"
    },
    {
      "inputs": [
        {
          "internalType": "uint256",
          "name": "id",
          "type": "uint256"
        }
      ],
      "name": "triggerPayment",
      "outputs": [],
      "stateMutability": "nonpayable",
      "type": "function"
    },
    {
      "inputs": [
        {
          "internalType": "uint256",
          "name": "id",
          "type": "uint256"
        }
      ],
      "name": "triggerDelivery",
      "outputs": [],
      "stateMutability": "nonpayable",
      "type": "function"
    },
    {
      "inputs": [
        {
          "internalType": "uint256",
          "name": "index",
          "type": "uint256"
        }
      ],
      "name": "trackOrder",
      "outputs": [
        {
          "internalType": "enum MedicineSupplyChain.SupplyChainSteps",
          "name": "",
          "type": "uint8"
        }
      ],
      "stateMutability": "view",
      "type": "function",
      "constant": true
    }
  ],
  "bytecode": "0x60806040523480156200001157600080fd5b506040516200152738038062001527833981810160405281019062000037919062000129565b806000806101000a81548173ffffffffffffffffffffffffffffffffffffffff021916908373ffffffffffffffffffffffffffffffffffffffff16021790555033600160006101000a81548173ffffffffffffffffffffffffffffffffffffffff021916908373ffffffffffffffffffffffffffffffffffffffff160217905550506200015b565b600080fd5b600073ffffffffffffffffffffffffffffffffffffffff82169050919050565b6000620000f182620000c4565b9050919050565b6200010381620000e4565b81146200010f57600080fd5b50565b6000815190506200012381620000f8565b92915050565b600060208284031215620001425762000141620000bf565b5b6000620001528482850162000112565b91505092915050565b6113bc806200016b6000396000f3fe608060405234801561001057600080fd5b50600436106100935760003560e01c806382b2e2571161006657806382b2e2571461011e5780638c5517421461013c578063bfb231d214610158578063cd31831e1461018a578063d21220a7146101a657610093565b80631d1d430514610098578063609a6aaa146100b457806373688914146100e4578063800fb83f14610102575b600080fd5b6100b260048036038101906100ad91906109ca565b6101c4565b005b6100ce60048036038101906100c99190610a0a565b61027c565b6040516100db9190610aae565b60405180910390f35b6100ec610383565b6040516100f99190610ad8565b60405180910390f35b61011c60048036038101906101179190610a0a565b6103a9565b005b6101266104a6565b6040516101339190610b02565b60405180910390f35b61015660048036038101906101519190610c63565b610562565b005b610172600480360381019061016d9190610a0a565b610637565b60405161018193929190610d3e565b60405180910390f35b6101a4600480360381019061019f9190610a0a565b6106f6565b005b6101ae610870565b6040516101bb9190610ddb565b60405180910390f35b60008054906101000a900473ffffffffffffffffffffffffffffffffffffffff1673ffffffffffffffffffffffffffffffffffffffff166323b872dd3384670de0b6b3a7640000856102169190610e25565b6040518463ffffffff1660e01b815260040161023493929190610e67565b6020604051808303816000875af1158015610253573d6000803e3d6000fd5b505050506040513d601f19601f820116820180604052508101906102779190610ed6565b505050565b600080600260008481526020019081526020016000206040518060600160405290816000820160009054906101000a900460ff1660028111156102c2576102c1610a37565b5b60028111156102d4576102d3610a37565b5b81526020016001820180546102e890610f32565b80601f016020809104026020016040519081016040528092919081815260200182805461031490610f32565b80156103615780601f1061033657610100808354040283529160200191610361565b820191906000526020600020905b81548152906001019060200180831161034457829003601f168201915b5050505050815260200160028201548152505090508060000151915050919050565b600160009054906101000a900473ffffffffffffffffffffffffffffffffffffffff1681565b60016002600083815260200190815260200160002060000160006101000a81548160ff021916908360028111156103e3576103e2610a37565b5b021790555061043560008054906101000a900473ffffffffffffffffffffffffffffffffffffffff1633600160009054906101000a900473ffffffffffffffffffffffffffffffffffffffff16610894565b7f8c198761ba3d324d155cbaf96f0ac38a531c085089e49106d95352535a1110c2816002600084815260200190815260200160002060000160009054906101000a900460ff16600281111561048d5761048c610a37565b5b60405161049b929190610f63565b60405180910390a150565b60008060008054906101000a900473ffffffffffffffffffffffffffffffffffffffff1673ffffffffffffffffffffffffffffffffffffffff166370a08231336040518263ffffffff1660e01b81526004016105029190610ad8565b602060405180830381865afa15801561051f573d6000803e3d6000fd5b505050506040513d601f19601f820116820180604052508101906105439190610fa1565b9050670de0b6b3a7640000816105599190610ffd565b90508091505090565b60006002600083815260200190815260200160002060000160006101000a81548160ff0219169083600281111561059c5761059b610a37565b5b0217905550816002600083815260200190815260200160002060010190816105c491906111d0565b507f8c198761ba3d324d155cbaf96f0ac38a531c085089e49106d95352535a1110c2816002600084815260200190815260200160002060000160009054906101000a900460ff16600281111561061d5761061c610a37565b5b60405161062b929190610f63565b60405180910390a15050565b60026020528060005260406000206000915090508060000160009054906101000a900460ff169080600101805461066d90610f32565b80601f016020809104026020016040519081016040528092919081815260200182805461069990610f32565b80156106e65780601f106106bb576101008083540402835291602001916106e6565b820191906000526020600020905b8154815290600101906020018083116106c957829003601f168201915b5050505050908060020154905083565b600280600083815260200190815260200160002060000160006101000a81548160ff0219169083600281111561072f5761072e610a37565b5b021790555060008054906101000a900473ffffffffffffffffffffffffffffffffffffffff1673ffffffffffffffffffffffffffffffffffffffff166323b872dd33600160009054906101000a900473ffffffffffffffffffffffffffffffffffffffff16674563918244f400006040518463ffffffff1660e01b81526004016107bb939291906112dd565b6020604051808303816000875af11580156107da573d6000803e3d6000fd5b505050506040513d601f19601f820116820180604052508101906107fe9190610ed6565b507f8c198761ba3d324d155cbaf96f0ac38a531c085089e49106d95352535a1110c2816002600084815260200190815260200160002060000160009054906101000a900460ff16600281111561085757610856610a37565b5b604051610865929190610f63565b60405180910390a150565b60008054906101000a900473ffffffffffffffffffffffffffffffffffffffff1681565b8273ffffffffffffffffffffffffffffffffffffffff166323b872dd8383678ac7230489e800006040518463ffffffff1660e01b81526004016108d99392919061134f565b6020604051808303816000875af11580156108f8573d6000803e3d6000fd5b505050506040513d601f19601f8201168201806040525081019061091c9190610ed6565b50505050565b6000604051905090565b600080fd5b600080fd5b600073ffffffffffffffffffffffffffffffffffffffff82169050919050565b600061096182610936565b9050919050565b61097181610956565b811461097c57600080fd5b50565b60008135905061098e81610968565b92915050565b6000819050919050565b6109a781610994565b81146109b257600080fd5b50565b6000813590506109c48161099e565b92915050565b600080604083850312156109e1576109e061092c565b5b60006109ef8582860161097f565b9250506020610a00858286016109b5565b9150509250929050565b600060208284031215610a2057610a1f61092c565b5b6000610a2e848285016109b5565b91505092915050565b7f4e487b7100000000000000000000000000000000000000000000000000000000600052602160045260246000fd5b60038110610a7757610a76610a37565b5b50565b6000819050610a8882610a66565b919050565b6000610a9882610a7a565b9050919050565b610aa881610a8d565b82525050565b6000602082019050610ac36000830184610a9f565b92915050565b610ad281610956565b82525050565b6000602082019050610aed6000830184610ac9565b92915050565b610afc81610994565b82525050565b6000602082019050610b176000830184610af3565b92915050565b600080fd5b600080fd5b6000601f19601f8301169050919050565b7f4e487b7100000000000000000000000000000000000000000000000000000000600052604160045260246000fd5b610b7082610b27565b810181811067ffffffffffffffff82111715610b8f57610b8e610b38565b5b80604052505050565b6000610ba2610922565b9050610bae8282610b67565b919050565b600067ffffffffffffffff821115610bce57610bcd610b38565b5b610bd782610b27565b9050602081019050919050565b82818337600083830152505050565b6000610c06610c0184610bb3565b610b98565b905082815260208101848484011115610c2257610c21610b22565b5b610c2d848285610be4565b509392505050565b600082601f830112610c4a57610c49610b1d565b5b8135610c5a848260208601610bf3565b91505092915050565b60008060408385031215610c7a57610c7961092c565b5b600083013567ffffffffffffffff811115610c9857610c97610931565b5b610ca485828601610c35565b9250506020610cb5858286016109b5565b9150509250929050565b600081519050919050565b600082825260208201905092915050565b60005b83811015610cf9578082015181840152602081019050610cde565b60008484015250505050565b6000610d1082610cbf565b610d1a8185610cca565b9350610d2a818560208601610cdb565b610d3381610b27565b840191505092915050565b6000606082019050610d536000830186610a9f565b8181036020830152610d658185610d05565b9050610d746040830184610af3565b949350505050565b6000819050919050565b6000610da1610d9c610d9784610936565b610d7c565b610936565b9050919050565b6000610db382610d86565b9050919050565b6000610dc582610da8565b9050919050565b610dd581610dba565b82525050565b6000602082019050610df06000830184610dcc565b92915050565b7f4e487b7100000000000000000000000000000000000000000000000000000000600052601160045260246000fd5b6000610e3082610994565b9150610e3b83610994565b9250828202610e4981610994565b91508282048414831517610e6057610e5f610df6565b5b5092915050565b6000606082019050610e7c6000830186610ac9565b610e896020830185610ac9565b610e966040830184610af3565b949350505050565b60008115159050919050565b610eb381610e9e565b8114610ebe57600080fd5b50565b600081519050610ed081610eaa565b92915050565b600060208284031215610eec57610eeb61092c565b5b6000610efa84828501610ec1565b91505092915050565b7f4e487b7100000000000000000000000000000000000000000000000000000000600052602260045260246000fd5b60006002820490506001821680610f4a57607f821691505b602082108103610f5d57610f5c610f03565b5b50919050565b6000604082019050610f786000830185610af3565b610f856020830184610af3565b9392505050565b600081519050610f9b8161099e565b92915050565b600060208284031215610fb757610fb661092c565b5b6000610fc584828501610f8c565b91505092915050565b7f4e487b7100000000000000000000000000000000000000000000000000000000600052601260045260246000fd5b600061100882610994565b915061101383610994565b92508261102357611022610fce565b5b828204905092915050565b60008190508160005260206000209050919050565b60006020601f8301049050919050565b600082821b905092915050565b6000600883026110907fffffffffffffffffffffffffffffffffffffffffffffffffffffffffffffffff82611053565b61109a8683611053565b95508019841693508086168417925050509392505050565b60006110cd6110c86110c384610994565b610d7c565b610994565b9050919050565b6000819050919050565b6110e7836110b2565b6110fb6110f3826110d4565b848454611060565b825550505050565b600090565b611110611103565b61111b8184846110de565b505050565b5b8181101561113f57611134600082611108565b600181019050611121565b5050565b601f821115611184576111558161102e565b61115e84611043565b8101602085101561116d578190505b61118161117985611043565b830182611120565b50505b505050565b600082821c905092915050565b60006111a760001984600802611189565b1980831691505092915050565b60006111c08383611196565b9150826002028217905092915050565b6111d982610cbf565b67ffffffffffffffff8111156111f2576111f1610b38565b5b6111fc8254610f32565b611207828285611143565b600060209050601f83116001811461123a5760008415611228578287015190505b61123285826111b4565b86555061129a565b601f1984166112488661102e565b60005b828110156112705784890151825560018201915060208501945060208101905061124b565b8683101561128d5784890151611289601f891682611196565b8355505b6001600288020188555050505b505050505050565b6000819050919050565b60006112c76112c26112bd846112a2565b610d7c565b610994565b9050919050565b6112d7816112ac565b82525050565b60006060820190506112f26000830186610ac9565b6112ff6020830185610ac9565b61130c60408301846112ce565b949350505050565b6000819050919050565b600061133961133461132f84611314565b610d7c565b610994565b9050919050565b6113498161131e565b82525050565b60006060820190506113646000830186610ac9565b6113716020830185610ac9565b61137e6040830184611340565b94935050505056fea264697066735822122084acd32594d9156db7db6da8317d258cd27b04c6f3f83f078e9c52224c54bebc64736f6c63430008110033",
  "immutableReferences": {},
  "source": "pragma solidity ^0.8.0;\nimport \"@openzeppelin/contracts/token/ERC20/IERC20.sol\";\n\ncontract MedicineSupplyChain{\n\n    IERC20 public token1;\n    address public owner1;\n\n    enum SupplyChainSteps{Created, Paid, Delivered}\n    struct S_Item {\n        MedicineSupplyChain.SupplyChainSteps step;\n        string customername;\n        uint id;   \n    }\n    mapping(uint => S_Item) public items;\n   \n    event SupplyChainStep(uint id, uint step);\n\n    constructor(\n        address _token1\n    ) {\n        token1 = IERC20(_token1);\n        owner1 = msg.sender;\n    }\n\n    function transferTokenAmount(address _toadd, uint amount) public{\n        token1.transferFrom(msg.sender,_toadd , amount * 1000000000000000000 );\n    }\n\n    function getTokenBalance() public view returns(uint){\n        uint balance = token1.balanceOf(msg.sender);\n        balance = balance/1000000000000000000;\n        return balance;\n    }\n\n    function createItem(string memory customername, uint id) public{\n        items[id].step = SupplyChainSteps.Created;\n        items[id].customername = customername;\n        emit SupplyChainStep(id, uint(items[id].step));\n    }\n\n    function triggerPayment(uint id) public{\n        items[id].step = SupplyChainSteps.Paid;\n        // Allowing sender to transfer funds to owner account\n        // token1.allowance(owner1, msg.sender);\n        // Transfer from function  to send tokens from sender to owner address\n        // For each and every medicine the user buy, we take 10 med tokens from the user\n        _safeTransferFrom(token1, msg.sender, owner1);\n        emit SupplyChainStep(id, uint(items[id].step));\n    }\n\n    function triggerDelivery(uint id) public{\n        items[id].step = SupplyChainSteps.Delivered;\n        // Transfer from function  to send tokens from sender to owner address\n        // For every medicine delivery, we take 5 med tokens from the user\n        token1.transferFrom(msg.sender, owner1, 5 * 1000000000000000000 );\n        emit SupplyChainStep(id, uint(items[id].step));\n    }\n\n    function trackOrder(uint index) public view returns (MedicineSupplyChain.SupplyChainSteps){\n        S_Item memory o = items[index];\n        return o.step;\n    }\n\n    function _safeTransferFrom(\n        IERC20 token,\n        address sender,\n        address recipient\n    ) private {\n        token.transferFrom(sender, recipient, 10 * 1000000000000000000 );\n        \n    }\n}",
  "sourcePath": "/Users/narendrayalamanchi/Desktop/Fall 22 Courses/CSE 526 - Blokchain/project/Yalamanchi Chakraborty phase3 4/medicine-Dapp/contract/contracts/MedicineSupplyChain.sol",
  "compiler": {
    "name": "solc",
    "version": "0.8.17+commit.8df45f5f.Emscripten.clang"
  },
  "schemaVersion": "3.4.11",
  "updatedAt": "2022-12-16T06:05:12.617Z",
  "networkType": "ethereum",
  "devdoc": {
    "kind": "dev",
    "methods": {},
    "version": 1
  },
  "userdoc": {
    "kind": "user",
    "methods": {},
    "version": 1
  }
}